{
  "contractName": "ZKPAuth",
  "abi": [
    {
      "anonymous": false,
      "inputs": [
        {
          "indexed": true,
          "internalType": "address",
          "name": "user",
          "type": "address"
        },
        {
          "indexed": false,
          "internalType": "bool",
          "name": "success",
          "type": "bool"
        }
      ],
      "name": "ProofVerified",
      "type": "event"
    },
    {
      "anonymous": false,
      "inputs": [
        {
          "indexed": true,
          "internalType": "address",
          "name": "user",
          "type": "address"
        },
        {
          "indexed": false,
          "internalType": "bytes32",
          "name": "publicKey",
          "type": "bytes32"
        }
      ],
      "name": "UserRegistered",
      "type": "event"
    },
    {
      "anonymous": false,
      "inputs": [
        {
          "indexed": true,
          "internalType": "address",
          "name": "user",
          "type": "address"
        },
        {
          "indexed": false,
          "internalType": "bytes32",
          "name": "newPublicKey",
          "type": "bytes32"
        }
      ],
      "name": "UserUpdated",
      "type": "event"
    },
    {
      "inputs": [
        {
          "internalType": "address",
          "name": "",
          "type": "address"
        }
      ],
      "name": "users",
      "outputs": [
        {
          "internalType": "address",
          "name": "userAddress",
          "type": "address"
        },
        {
          "internalType": "bytes32",
          "name": "publicKey",
          "type": "bytes32"
        },
        {
          "internalType": "bool",
          "name": "isRegistered",
          "type": "bool"
        }
      ],
      "stateMutability": "view",
      "type": "function"
    },
    {
      "inputs": [
        {
          "internalType": "bytes32",
          "name": "publicKey",
          "type": "bytes32"
        }
      ],
      "name": "register",
      "outputs": [],
      "stateMutability": "nonpayable",
      "type": "function"
    },
    {
      "inputs": [
        {
          "internalType": "bytes32",
          "name": "newPublicKey",
          "type": "bytes32"
        }
      ],
      "name": "updatePublicKey",
      "outputs": [],
      "stateMutability": "nonpayable",
      "type": "function"
    },
    {
      "inputs": [
        {
          "internalType": "bytes32",
          "name": "proof",
          "type": "bytes32"
        },
        {
          "internalType": "bytes32",
          "name": "expectedProof",
          "type": "bytes32"
        }
      ],
      "name": "verifyProof",
      "outputs": [],
      "stateMutability": "nonpayable",
      "type": "function"
    },
    {
      "inputs": [
        {
          "internalType": "address",
          "name": "user",
          "type": "address"
        }
      ],
      "name": "getUser",
      "outputs": [
        {
          "components": [
            {
              "internalType": "address",
              "name": "userAddress",
              "type": "address"
            },
            {
              "internalType": "bytes32",
              "name": "publicKey",
              "type": "bytes32"
            },
            {
              "internalType": "bool",
              "name": "isRegistered",
              "type": "bool"
            }
          ],
          "internalType": "struct ZKPAuth.User",
          "name": "",
          "type": "tuple"
        }
      ],
      "stateMutability": "view",
      "type": "function"
    }
  ],
  "bytecode": "0x608060405234801561000f575f80fd5b50610a128061001d5f395ff3fe608060405234801561000f575f80fd5b5060043610610055575f3560e01c80636f77926b14610059578063739808e51461008957806399b06454146100a5578063a87430ba146100c1578063e1fa8e84146100f3575b5f80fd5b610073600480360381019061006e9190610710565b61010f565b60405161008091906107bc565b60405180910390f35b6100a3600480360381019061009e91906107ff565b610268565b005b6100bf60048036038101906100ba919061083d565b61034c565b005b6100db60048036038101906100d69190610710565b61046c565b6040516100ea93929190610895565b60405180910390f35b61010d6004803603810190610108919061083d565b6104bc565b005b610117610679565b5f808373ffffffffffffffffffffffffffffffffffffffff1673ffffffffffffffffffffffffffffffffffffffff1681526020019081526020015f206002015f9054906101000a900460ff166101a2576040517f08c379a000000000000000000000000000000000000000000000000000000000815260040161019990610924565b60405180910390fd5b5f808373ffffffffffffffffffffffffffffffffffffffff1673ffffffffffffffffffffffffffffffffffffffff1681526020019081526020015f206040518060600160405290815f82015f9054906101000a900473ffffffffffffffffffffffffffffffffffffffff1673ffffffffffffffffffffffffffffffffffffffff1673ffffffffffffffffffffffffffffffffffffffff16815260200160018201548152602001600282015f9054906101000a900460ff1615151515815250509050919050565b5f803373ffffffffffffffffffffffffffffffffffffffff1673ffffffffffffffffffffffffffffffffffffffff1681526020019081526020015f206002015f9054906101000a900460ff166102f3576040517f08c379a00000000000000000000000000000000000000000000000000000000081526004016102ea90610924565b60405180910390fd5b5f81831490503373ffffffffffffffffffffffffffffffffffffffff167f67138ba576c85b9348a42249a156ac9e82c361ab57372970c581a0c36c9673e98260405161033f9190610942565b60405180910390a2505050565b5f803373ffffffffffffffffffffffffffffffffffffffff1673ffffffffffffffffffffffffffffffffffffffff1681526020019081526020015f206002015f9054906101000a900460ff166103d7576040517f08c379a00000000000000000000000000000000000000000000000000000000081526004016103ce90610924565b60405180910390fd5b805f803373ffffffffffffffffffffffffffffffffffffffff1673ffffffffffffffffffffffffffffffffffffffff1681526020019081526020015f20600101819055503373ffffffffffffffffffffffffffffffffffffffff167f6c46eb453c5219d7665e4dda98f6200b9c6978d989806dfc2d2b17dc03609c5382604051610461919061095b565b60405180910390a250565b5f602052805f5260405f205f91509050805f015f9054906101000a900473ffffffffffffffffffffffffffffffffffffffff1690806001015490806002015f9054906101000a900460ff16905083565b5f803373ffffffffffffffffffffffffffffffffffffffff1673ffffffffffffffffffffffffffffffffffffffff1681526020019081526020015f206002015f9054906101000a900460ff1615610548576040517f08c379a000000000000000000000000000000000000000000000000000000000815260040161053f906109be565b60405180910390fd5b60405180606001604052803373ffffffffffffffffffffffffffffffffffffffff168152602001828152602001600115158152505f803373ffffffffffffffffffffffffffffffffffffffff1673ffffffffffffffffffffffffffffffffffffffff1681526020019081526020015f205f820151815f015f6101000a81548173ffffffffffffffffffffffffffffffffffffffff021916908373ffffffffffffffffffffffffffffffffffffffff160217905550602082015181600101556040820151816002015f6101000a81548160ff0219169083151502179055509050503373ffffffffffffffffffffffffffffffffffffffff167f4c5d15f5779ae1ecd7d55bd3283d898e29c35743d172bd7b83a16e17bc0afe2a8260405161066e919061095b565b60405180910390a250565b60405180606001604052805f73ffffffffffffffffffffffffffffffffffffffff1681526020015f80191681526020015f151581525090565b5f80fd5b5f73ffffffffffffffffffffffffffffffffffffffff82169050919050565b5f6106df826106b6565b9050919050565b6106ef816106d5565b81146106f9575f80fd5b50565b5f8135905061070a816106e6565b92915050565b5f60208284031215610725576107246106b2565b5b5f610732848285016106fc565b91505092915050565b610744816106d5565b82525050565b5f819050919050565b61075c8161074a565b82525050565b5f8115159050919050565b61077681610762565b82525050565b606082015f8201516107905f85018261073b565b5060208201516107a36020850182610753565b5060408201516107b6604085018261076d565b50505050565b5f6060820190506107cf5f83018461077c565b92915050565b6107de8161074a565b81146107e8575f80fd5b50565b5f813590506107f9816107d5565b92915050565b5f8060408385031215610815576108146106b2565b5b5f610822858286016107eb565b9250506020610833858286016107eb565b9150509250929050565b5f60208284031215610852576108516106b2565b5b5f61085f848285016107eb565b91505092915050565b610871816106d5565b82525050565b6108808161074a565b82525050565b61088f81610762565b82525050565b5f6060820190506108a85f830186610868565b6108b56020830185610877565b6108c26040830184610886565b949350505050565b5f82825260208201905092915050565b7f55736572206e6f742072656769737465726564000000000000000000000000005f82015250565b5f61090e6013836108ca565b9150610919826108da565b602082019050919050565b5f6020820190508181035f83015261093b81610902565b9050919050565b5f6020820190506109555f830184610886565b92915050565b5f60208201905061096e5f830184610877565b92915050565b7f5573657220616c726561647920726567697374657265640000000000000000005f82015250565b5f6109a86017836108ca565b91506109b382610974565b602082019050919050565b5f6020820190508181035f8301526109d58161099c565b905091905056fea2646970667358221220f095bd35874ae558ca88968b8153bc0755f239f4f25b3b7457c839bb5fd8ab8f64736f6c63430008150033",
  "immutableReferences": {},
  "source": "// SPDX-License-Identifier: MIT\r\npragma solidity ^0.8.0;\r\n\r\ncontract ZKPAuth {\r\n    struct User {\r\n        address userAddress;\r\n        bytes32 publicKey; // User's public key hash\r\n        bool isRegistered; // Tracks registration status\r\n    }\r\n\r\n    mapping(address => User) public users;\r\n\r\n    event UserRegistered(address indexed user, bytes32 publicKey);\r\n    event UserUpdated(address indexed user, bytes32 newPublicKey);\r\n    event ProofVerified(address indexed user, bool success);\r\n\r\n    // User registration function\r\n    function register(bytes32 publicKey) public {\r\n        require(!users[msg.sender].isRegistered, \"User already registered\");\r\n\r\n        // Register the user\r\n        users[msg.sender] = User({\r\n            userAddress: msg.sender,\r\n            publicKey: publicKey,\r\n            isRegistered: true\r\n        });\r\n\r\n        emit UserRegistered(msg.sender, publicKey);\r\n    }\r\n\r\n    // Update public key function\r\n    function updatePublicKey(bytes32 newPublicKey) public {\r\n        require(users[msg.sender].isRegistered, \"User not registered\");\r\n\r\n        users[msg.sender].publicKey = newPublicKey;\r\n\r\n        emit UserUpdated(msg.sender, newPublicKey);\r\n    }\r\n\r\n    // Function to verify ZKP proof (dummy for now)\r\n    function verifyProof(bytes32 proof, bytes32 expectedProof) public {\r\n        require(users[msg.sender].isRegistered, \"User not registered\");\r\n\r\n        // Simulated proof verification\r\n        bool isValid = (proof == expectedProof);\r\n\r\n        emit ProofVerified(msg.sender, isValid);\r\n    }\r\n\r\n    // Get user information\r\n    function getUser(address user) public view returns (User memory) {\r\n        require(users[user].isRegistered, \"User not registered\");\r\n        return users[user];\r\n    }\r\n}\r\n",
  "sourcePath": "E:\\nandu\\Major Project\\contracts\\ZKPAuth.sol",
  "compiler": {
    "name": "solc",
    "version": "0.8.21+commit.d9974bed.Emscripten.clang"
  },
  "schemaVersion": "3.4.16",
  "updatedAt": "2025-01-27T04:11:10.147Z",
  "devdoc": {
    "kind": "dev",
    "methods": {},
    "version": 1
  },
  "userdoc": {
    "kind": "user",
    "methods": {},
    "version": 1
  }
}